{
  "_format": "hh-sol-artifact-1",
  "contractName": "Voting",
  "sourceName": "contracts/Voting.sol",
  "abi": [
    {
      "anonymous": false,
      "inputs": [
        {
          "indexed": true,
          "internalType": "address",
          "name": "previousOwner",
          "type": "address"
        },
        {
          "indexed": true,
          "internalType": "address",
          "name": "newOwner",
          "type": "address"
        }
      ],
      "name": "OwnershipTransferred",
      "type": "event"
    },
    {
      "anonymous": false,
      "inputs": [
        {
          "indexed": false,
          "internalType": "uint256",
          "name": "proposalId",
          "type": "uint256"
        },
        {
          "indexed": false,
          "internalType": "string",
          "name": "description",
          "type": "string"
        },
        {
          "indexed": false,
          "internalType": "address",
          "name": "proposer",
          "type": "address"
        }
      ],
      "name": "ProposalRegistered",
      "type": "event"
    },
    {
      "anonymous": false,
      "inputs": [
        {
          "indexed": false,
          "internalType": "address",
          "name": "voter",
          "type": "address"
        },
        {
          "indexed": false,
          "internalType": "uint256",
          "name": "proposalId",
          "type": "uint256"
        }
      ],
      "name": "Voted",
      "type": "event"
    },
    {
      "anonymous": false,
      "inputs": [
        {
          "indexed": false,
          "internalType": "address",
          "name": "voterAddress",
          "type": "address"
        }
      ],
      "name": "VoterRegistered",
      "type": "event"
    },
    {
      "anonymous": false,
      "inputs": [
        {
          "indexed": false,
          "internalType": "enum Voting.WorkflowStatus",
          "name": "previousStatus",
          "type": "uint8"
        },
        {
          "indexed": false,
          "internalType": "enum Voting.WorkflowStatus",
          "name": "newStatus",
          "type": "uint8"
        }
      ],
      "name": "WorkflowStatusChange",
      "type": "event"
    },
    {
      "inputs": [
        {
          "internalType": "string",
          "name": "_desc",
          "type": "string"
        }
      ],
      "name": "addProposal",
      "outputs": [],
      "stateMutability": "nonpayable",
      "type": "function"
    },
    {
      "inputs": [
        {
          "internalType": "address",
          "name": "_addr",
          "type": "address"
        }
      ],
      "name": "addVoter",
      "outputs": [],
      "stateMutability": "nonpayable",
      "type": "function"
    },
    {
      "inputs": [],
      "name": "endProposalsRegistering",
      "outputs": [],
      "stateMutability": "nonpayable",
      "type": "function"
    },
    {
      "inputs": [],
      "name": "endVotingSession",
      "outputs": [],
      "stateMutability": "nonpayable",
      "type": "function"
    },
    {
      "inputs": [
        {
          "internalType": "uint256",
          "name": "_id",
          "type": "uint256"
        }
      ],
      "name": "getOneProposal",
      "outputs": [
        {
          "components": [
            {
              "internalType": "string",
              "name": "description",
              "type": "string"
            },
            {
              "internalType": "uint256",
              "name": "voteCount",
              "type": "uint256"
            }
          ],
          "internalType": "struct Voting.Proposal",
          "name": "",
          "type": "tuple"
        }
      ],
      "stateMutability": "view",
      "type": "function"
    },
    {
      "inputs": [
        {
          "internalType": "address",
          "name": "_addr",
          "type": "address"
        }
      ],
      "name": "getVoter",
      "outputs": [
        {
          "components": [
            {
              "internalType": "bool",
              "name": "isRegistered",
              "type": "bool"
            },
            {
              "internalType": "bool",
              "name": "hasVoted",
              "type": "bool"
            },
            {
              "internalType": "uint8",
              "name": "nbProposals",
              "type": "uint8"
            },
            {
              "internalType": "uint232",
              "name": "votedProposalId",
              "type": "uint232"
            }
          ],
          "internalType": "struct Voting.Voter",
          "name": "",
          "type": "tuple"
        }
      ],
      "stateMutability": "view",
      "type": "function"
    },
    {
      "inputs": [],
      "name": "getWinner",
      "outputs": [],
      "stateMutability": "nonpayable",
      "type": "function"
    },
    {
      "inputs": [],
      "name": "owner",
      "outputs": [
        {
          "internalType": "address",
          "name": "",
          "type": "address"
        }
      ],
      "stateMutability": "view",
      "type": "function"
    },
    {
      "inputs": [],
      "name": "renounceOwnership",
      "outputs": [],
      "stateMutability": "nonpayable",
      "type": "function"
    },
    {
      "inputs": [
        {
          "internalType": "uint232",
          "name": "_id",
          "type": "uint232"
        }
      ],
      "name": "setVote",
      "outputs": [],
      "stateMutability": "nonpayable",
      "type": "function"
    },
    {
      "inputs": [],
      "name": "startProposalsRegistering",
      "outputs": [],
      "stateMutability": "nonpayable",
      "type": "function"
    },
    {
      "inputs": [],
      "name": "startVotingSession",
      "outputs": [],
      "stateMutability": "nonpayable",
      "type": "function"
    },
    {
      "inputs": [],
      "name": "tallyVotes",
      "outputs": [],
      "stateMutability": "nonpayable",
      "type": "function"
    },
    {
      "inputs": [
        {
          "internalType": "address",
          "name": "newOwner",
          "type": "address"
        }
      ],
      "name": "transferOwnership",
      "outputs": [],
      "stateMutability": "nonpayable",
      "type": "function"
    },
    {
      "inputs": [
        {
          "internalType": "address",
          "name": "",
          "type": "address"
        }
      ],
      "name": "voters",
      "outputs": [
        {
          "internalType": "bool",
          "name": "isRegistered",
          "type": "bool"
        },
        {
          "internalType": "bool",
          "name": "hasVoted",
          "type": "bool"
        },
        {
          "internalType": "uint8",
          "name": "nbProposals",
          "type": "uint8"
        },
        {
          "internalType": "uint232",
          "name": "votedProposalId",
          "type": "uint232"
        }
      ],
      "stateMutability": "view",
      "type": "function"
    },
    {
      "inputs": [],
      "name": "winningProposalID",
      "outputs": [
        {
          "internalType": "uint256",
          "name": "",
          "type": "uint256"
        }
      ],
      "stateMutability": "view",
      "type": "function"
    },
    {
      "inputs": [],
      "name": "workflowStatus",
      "outputs": [
        {
          "internalType": "enum Voting.WorkflowStatus",
          "name": "",
          "type": "uint8"
        }
      ],
      "stateMutability": "view",
      "type": "function"
    }
  ],
  "bytecode": "0x60806040523480156200001157600080fd5b5062000032620000266200003860201b60201c565b6200004060201b60201c565b62000104565b600033905090565b60008060009054906101000a900473ffffffffffffffffffffffffffffffffffffffff169050816000806101000a81548173ffffffffffffffffffffffffffffffffffffffff021916908373ffffffffffffffffffffffffffffffffffffffff1602179055508173ffffffffffffffffffffffffffffffffffffffff168173ffffffffffffffffffffffffffffffffffffffff167f8be0079c531659141344cd1fd0a4f28419497f9722a3daafe3b4186f6b6457e060405160405180910390a35050565b612ab180620001146000396000f3fe608060405234801561001057600080fd5b506004361061010b5760003560e01c8063a7bfab16116100a2578063d4f50f9811610071578063d4f50f9814610225578063d5e6ef6f14610255578063ee74c67814610271578063f2fde38b1461027b578063f4ab9adf146102975761010b565b8063a7bfab16146101e9578063bdc01431146101f3578063c7038a4e14610211578063c88af42f1461021b5761010b565b80638e7ea5b2116100de5780638e7ea5b21461015e578063a1edffa214610168578063a2788cce14610186578063a3ec138d146101b65761010b565b80632fdae3c514610110578063378a21781461012c578063715018a6146101365780638da5cb5b14610140575b600080fd5b61012a60048036038101906101259190611838565b6102b3565b005b610134610649565b005b61013e61072f565b005b610148610743565b60405161015591906118c6565b60405180910390f35b61016661076c565b005b6101706107f4565b60405161017d9190611958565b60405180910390f35b6101a0600480360381019061019b91906119a9565b610807565b6040516101ad9190611ab2565b60405180910390f35b6101d060048036038101906101cb9190611b00565b61096e565b6040516101e09493929190611b9c565b60405180910390f35b6101f16109ee565b005b6101fb610ad4565b6040516102089190611bf0565b60405180910390f35b610219610ada565b005b610223610c55565b005b61023f600480360381019061023a9190611b00565b610d3b565b60405161024c9190611c8d565b60405180910390f35b61026f600480360381019061026a9190611cd4565b610ee7565b005b610279611306565b005b61029560048036038101906102909190611b00565b6113eb565b005b6102b160048036038101906102ac9190611b00565b61146e565b005b600560003373ffffffffffffffffffffffffffffffffffffffff1673ffffffffffffffffffffffffffffffffffffffff16815260200190815260200160002060000160009054906101000a900460ff16610342576040517f08c379a000000000000000000000000000000000000000000000000000000000815260040161033990611d5e565b60405180910390fd5b600a600560003373ffffffffffffffffffffffffffffffffffffffff1673ffffffffffffffffffffffffffffffffffffffff16815260200190815260200160002060000160029054906101000a900460ff1660ff16106103d7576040517f08c379a00000000000000000000000000000000000000000000000000000000081526004016103ce90611dca565b60405180910390fd5b600160058111156103eb576103ea6118e1565b5b600360009054906101000a900460ff16600581111561040d5761040c6118e1565b5b1461044d576040517f08c379a000000000000000000000000000000000000000000000000000000000815260040161044490611e36565b60405180910390fd5b60405160200161045c90611e7c565b604051602081830303815290604052805190602001208282604051602001610485929190611ed8565b60405160208183030381529060405280519060200120036104db576040517f08c379a00000000000000000000000000000000000000000000000000000000081526004016104d290611f6e565b60405180910390fd5b6104e3611761565b82828080601f016020809104026020016040519081016040528093929190818152602001838380828437600081840152601f19601f8201169050808301925050505050505081600001819052506004819080600181540180825580915050600190039060005260206000209060020201600090919091909150600082015181600001908161057191906121c9565b50602082015181600101555050600560003373ffffffffffffffffffffffffffffffffffffffff1673ffffffffffffffffffffffffffffffffffffffff168152602001908152602001600020600001600281819054906101000a900460ff16809291906105dd906122ca565b91906101000a81548160ff021916908360ff160217905550507f0aad20825c4b25c31b365bec972ad622bbb2e66769209520988f452ea648e797600160048054905061062991906122f3565b84843360405161063c9493929190612327565b60405180910390a1505050565b610651611617565b60046005811115610665576106646118e1565b5b600360009054906101000a900460ff166005811115610687576106866118e1565b5b146106c7576040517f08c379a00000000000000000000000000000000000000000000000000000000081526004016106be906123d9565b60405180910390fd5b6005600360006101000a81548160ff021916908360058111156106ed576106ec6118e1565b5b02179055507f0a97a4ee45751e2abf3e4fc8946939630b11b371ea8ae39ccdc3056e98f5cc3f600460056040516107259291906123f9565b60405180910390a1565b610737611617565b6107416000611695565b565b60008060009054906101000a900473ffffffffffffffffffffffffffffffffffffffff16905090565b610774611617565b600580811115610787576107866118e1565b5b600360009054906101000a900460ff1660058111156107a9576107a86118e1565b5b146107e9576040517f08c379a00000000000000000000000000000000000000000000000000000000081526004016107e09061246e565b60405180910390fd5b600154600281905550565b600360009054906101000a900460ff1681565b61080f611761565b600560003373ffffffffffffffffffffffffffffffffffffffff1673ffffffffffffffffffffffffffffffffffffffff16815260200190815260200160002060000160009054906101000a900460ff1661089e576040517f08c379a000000000000000000000000000000000000000000000000000000000815260040161089590611d5e565b60405180910390fd5b600482815481106108b2576108b161248e565b5b90600052602060002090600202016040518060400160405290816000820180546108db90611fec565b80601f016020809104026020016040519081016040528092919081815260200182805461090790611fec565b80156109545780601f1061092957610100808354040283529160200191610954565b820191906000526020600020905b81548152906001019060200180831161093757829003601f168201915b505050505081526020016001820154815250509050919050565b60056020528060005260406000206000915090508060000160009054906101000a900460ff16908060000160019054906101000a900460ff16908060000160029054906101000a900460ff16908060000160039054906101000a90047cffffffffffffffffffffffffffffffffffffffffffffffffffffffffff16905084565b6109f6611617565b60036005811115610a0a57610a096118e1565b5b600360009054906101000a900460ff166005811115610a2c57610a2b6118e1565b5b14610a6c576040517f08c379a0000000000000000000000000000000000000000000000000000000008152600401610a639061252f565b60405180910390fd5b6004600360006101000a81548160ff02191690836005811115610a9257610a916118e1565b5b02179055507f0a97a4ee45751e2abf3e4fc8946939630b11b371ea8ae39ccdc3056e98f5cc3f60036004604051610aca9291906123f9565b60405180910390a1565b60025481565b610ae2611617565b60006005811115610af657610af56118e1565b5b600360009054906101000a900460ff166005811115610b1857610b176118e1565b5b14610b58576040517f08c379a0000000000000000000000000000000000000000000000000000000008152600401610b4f906125c1565b60405180910390fd5b6001600360006101000a81548160ff02191690836005811115610b7e57610b7d6118e1565b5b0217905550610b8b611761565b6040518060400160405280600781526020017f47454e4553495300000000000000000000000000000000000000000000000000815250816000018190525060048190806001815401808255809150506001900390600052602060002090600202016000909190919091506000820151816000019081610c0a91906121c9565b506020820151816001015550507f0a97a4ee45751e2abf3e4fc8946939630b11b371ea8ae39ccdc3056e98f5cc3f60006001604051610c4a9291906123f9565b60405180910390a150565b610c5d611617565b60016005811115610c7157610c706118e1565b5b600360009054906101000a900460ff166005811115610c9357610c926118e1565b5b14610cd3576040517f08c379a0000000000000000000000000000000000000000000000000000000008152600401610cca90612653565b60405180910390fd5b6002600360006101000a81548160ff02191690836005811115610cf957610cf86118e1565b5b02179055507f0a97a4ee45751e2abf3e4fc8946939630b11b371ea8ae39ccdc3056e98f5cc3f60016002604051610d319291906123f9565b60405180910390a1565b610d4361177b565b600560003373ffffffffffffffffffffffffffffffffffffffff1673ffffffffffffffffffffffffffffffffffffffff16815260200190815260200160002060000160009054906101000a900460ff16610dd2576040517f08c379a0000000000000000000000000000000000000000000000000000000008152600401610dc990611d5e565b60405180910390fd5b600560008373ffffffffffffffffffffffffffffffffffffffff1673ffffffffffffffffffffffffffffffffffffffff1681526020019081526020016000206040518060800160405290816000820160009054906101000a900460ff161515151581526020016000820160019054906101000a900460ff161515151581526020016000820160029054906101000a900460ff1660ff1660ff1681526020016000820160039054906101000a90047cffffffffffffffffffffffffffffffffffffffffffffffffffffffffff167cffffffffffffffffffffffffffffffffffffffffffffffffffffffffff167cffffffffffffffffffffffffffffffffffffffffffffffffffffffffff16815250509050919050565b600560003373ffffffffffffffffffffffffffffffffffffffff1673ffffffffffffffffffffffffffffffffffffffff16815260200190815260200160002060000160009054906101000a900460ff16610f76576040517f08c379a0000000000000000000000000000000000000000000000000000000008152600401610f6d90611d5e565b60405180910390fd5b60036005811115610f8a57610f896118e1565b5b600360009054906101000a900460ff166005811115610fac57610fab6118e1565b5b14610fec576040517f08c379a0000000000000000000000000000000000000000000000000000000008152600401610fe39061252f565b60405180910390fd5b60011515600560003373ffffffffffffffffffffffffffffffffffffffff1673ffffffffffffffffffffffffffffffffffffffff16815260200190815260200160002060000160019054906101000a900460ff16151503611082576040517f08c379a0000000000000000000000000000000000000000000000000000000008152600401611079906126bf565b60405180910390fd5b600480549050817cffffffffffffffffffffffffffffffffffffffffffffffffffffffffff16106110e8576040517f08c379a00000000000000000000000000000000000000000000000000000000081526004016110df9061272b565b60405180910390fd5b80600560003373ffffffffffffffffffffffffffffffffffffffff1673ffffffffffffffffffffffffffffffffffffffff16815260200190815260200160002060000160036101000a8154817cffffffffffffffffffffffffffffffffffffffffffffffffffffffffff02191690837cffffffffffffffffffffffffffffffffffffffffffffffffffffffffff1602179055506001600560003373ffffffffffffffffffffffffffffffffffffffff1673ffffffffffffffffffffffffffffffffffffffff16815260200190815260200160002060000160016101000a81548160ff0219169083151502179055506004817cffffffffffffffffffffffffffffffffffffffffffffffffffffffffff16815481106112095761120861248e565b5b9060005260206000209060020201600101600081548092919061122b9061274b565b91905055506004600154815481106112465761124561248e565b5b9060005260206000209060020201600101546004827cffffffffffffffffffffffffffffffffffffffffffffffffffffffffff168154811061128b5761128a61248e565b5b90600052602060002090600202016001015411156112ca57807cffffffffffffffffffffffffffffffffffffffffffffffffffffffffff166001819055505b7f4d99b957a2bc29a30ebd96a7be8e68fe50a3c701db28a91436490b7d53870ca433826040516112fb9291906127c4565b60405180910390a150565b61130e611617565b60026005811115611322576113216118e1565b5b600360009054906101000a900460ff166005811115611344576113436118e1565b5b14611384576040517f08c379a000000000000000000000000000000000000000000000000000000000815260040161137b9061285f565b60405180910390fd5b60038060006101000a81548160ff021916908360058111156113a9576113a86118e1565b5b02179055507f0a97a4ee45751e2abf3e4fc8946939630b11b371ea8ae39ccdc3056e98f5cc3f600260036040516113e19291906123f9565b60405180910390a1565b6113f3611617565b600073ffffffffffffffffffffffffffffffffffffffff168173ffffffffffffffffffffffffffffffffffffffff1603611462576040517f08c379a0000000000000000000000000000000000000000000000000000000008152600401611459906128f1565b60405180910390fd5b61146b81611695565b50565b611476611617565b6000600581111561148a576114896118e1565b5b600360009054906101000a900460ff1660058111156114ac576114ab6118e1565b5b146114ec576040517f08c379a00000000000000000000000000000000000000000000000000000000081526004016114e390612983565b60405180910390fd5b60011515600560008373ffffffffffffffffffffffffffffffffffffffff1673ffffffffffffffffffffffffffffffffffffffff16815260200190815260200160002060000160009054906101000a900460ff16151503611582576040517f08c379a0000000000000000000000000000000000000000000000000000000008152600401611579906129ef565b60405180910390fd5b6001600560008373ffffffffffffffffffffffffffffffffffffffff1673ffffffffffffffffffffffffffffffffffffffff16815260200190815260200160002060000160006101000a81548160ff0219169083151502179055507fb6be2187d059cc2a55fe29e0e503b566e1e0f8c8780096e185429350acffd3dd8160405161160c91906118c6565b60405180910390a150565b61161f611759565b73ffffffffffffffffffffffffffffffffffffffff1661163d610743565b73ffffffffffffffffffffffffffffffffffffffff1614611693576040517f08c379a000000000000000000000000000000000000000000000000000000000815260040161168a90612a5b565b60405180910390fd5b565b60008060009054906101000a900473ffffffffffffffffffffffffffffffffffffffff169050816000806101000a81548173ffffffffffffffffffffffffffffffffffffffff021916908373ffffffffffffffffffffffffffffffffffffffff1602179055508173ffffffffffffffffffffffffffffffffffffffff168173ffffffffffffffffffffffffffffffffffffffff167f8be0079c531659141344cd1fd0a4f28419497f9722a3daafe3b4186f6b6457e060405160405180910390a35050565b600033905090565b604051806040016040528060608152602001600081525090565b6040518060800160405280600015158152602001600015158152602001600060ff16815260200160007cffffffffffffffffffffffffffffffffffffffffffffffffffffffffff1681525090565b600080fd5b600080fd5b600080fd5b600080fd5b600080fd5b60008083601f8401126117f8576117f76117d3565b5b8235905067ffffffffffffffff811115611815576118146117d8565b5b602083019150836001820283011115611831576118306117dd565b5b9250929050565b6000806020838503121561184f5761184e6117c9565b5b600083013567ffffffffffffffff81111561186d5761186c6117ce565b5b611879858286016117e2565b92509250509250929050565b600073ffffffffffffffffffffffffffffffffffffffff82169050919050565b60006118b082611885565b9050919050565b6118c0816118a5565b82525050565b60006020820190506118db60008301846118b7565b92915050565b7f4e487b7100000000000000000000000000000000000000000000000000000000600052602160045260246000fd5b60068110611921576119206118e1565b5b50565b600081905061193282611910565b919050565b600061194282611924565b9050919050565b61195281611937565b82525050565b600060208201905061196d6000830184611949565b92915050565b6000819050919050565b61198681611973565b811461199157600080fd5b50565b6000813590506119a38161197d565b92915050565b6000602082840312156119bf576119be6117c9565b5b60006119cd84828501611994565b91505092915050565b600081519050919050565b600082825260208201905092915050565b60005b83811015611a105780820151818401526020810190506119f5565b60008484015250505050565b6000601f19601f8301169050919050565b6000611a38826119d6565b611a4281856119e1565b9350611a528185602086016119f2565b611a5b81611a1c565b840191505092915050565b611a6f81611973565b82525050565b60006040830160008301518482036000860152611a928282611a2d565b9150506020830151611aa76020860182611a66565b508091505092915050565b60006020820190508181036000830152611acc8184611a75565b905092915050565b611add816118a5565b8114611ae857600080fd5b50565b600081359050611afa81611ad4565b92915050565b600060208284031215611b1657611b156117c9565b5b6000611b2484828501611aeb565b91505092915050565b60008115159050919050565b611b4281611b2d565b82525050565b600060ff82169050919050565b611b5e81611b48565b82525050565b60007cffffffffffffffffffffffffffffffffffffffffffffffffffffffffff82169050919050565b611b9681611b64565b82525050565b6000608082019050611bb16000830187611b39565b611bbe6020830186611b39565b611bcb6040830185611b55565b611bd86060830184611b8d565b95945050505050565b611bea81611973565b82525050565b6000602082019050611c056000830184611be1565b92915050565b611c1481611b2d565b82525050565b611c2381611b48565b82525050565b611c3281611b64565b82525050565b608082016000820151611c4e6000850182611c0b565b506020820151611c616020850182611c0b565b506040820151611c746040850182611c1a565b506060820151611c876060850182611c29565b50505050565b6000608082019050611ca26000830184611c38565b92915050565b611cb181611b64565b8114611cbc57600080fd5b50565b600081359050611cce81611ca8565b92915050565b600060208284031215611cea57611ce96117c9565b5b6000611cf884828501611cbf565b91505092915050565b600082825260208201905092915050565b7f596f75277265206e6f74206120766f7465720000000000000000000000000000600082015250565b6000611d48601283611d01565b9150611d5382611d12565b602082019050919050565b60006020820190508181036000830152611d7781611d3b565b9050919050565b7f4c696d697420726561636820666f7220616464696e672070726f706f73616c00600082015250565b6000611db4601f83611d01565b9150611dbf82611d7e565b602082019050919050565b60006020820190508181036000830152611de381611da7565b9050919050565b7f50726f706f73616c7320617265206e6f7420616c6c6f77656420796574000000600082015250565b6000611e20601d83611d01565b9150611e2b82611dea565b602082019050919050565b60006020820190508181036000830152611e4f81611e13565b9050919050565b50565b6000611e66600083611d01565b9150611e7182611e56565b600082019050919050565b60006020820190508181036000830152611e9581611e59565b9050919050565b82818337600083830152505050565b6000611eb78385611d01565b9350611ec4838584611e9c565b611ecd83611a1c565b840190509392505050565b60006020820190508181036000830152611ef3818486611eab565b90509392505050565b7f566f7573206e6520706f7576657a20706173206e65207269656e2070726f706f60008201527f7365720000000000000000000000000000000000000000000000000000000000602082015250565b6000611f58602383611d01565b9150611f6382611efc565b604082019050919050565b60006020820190508181036000830152611f8781611f4b565b9050919050565b7f4e487b7100000000000000000000000000000000000000000000000000000000600052604160045260246000fd5b7f4e487b7100000000000000000000000000000000000000000000000000000000600052602260045260246000fd5b6000600282049050600182168061200457607f821691505b60208210810361201757612016611fbd565b5b50919050565b60008190508160005260206000209050919050565b60006020601f8301049050919050565b600082821b905092915050565b60006008830261207f7fffffffffffffffffffffffffffffffffffffffffffffffffffffffffffffffff82612042565b6120898683612042565b95508019841693508086168417925050509392505050565b6000819050919050565b60006120c66120c16120bc84611973565b6120a1565b611973565b9050919050565b6000819050919050565b6120e0836120ab565b6120f46120ec826120cd565b84845461204f565b825550505050565b600090565b6121096120fc565b6121148184846120d7565b505050565b5b818110156121385761212d600082612101565b60018101905061211a565b5050565b601f82111561217d5761214e8161201d565b61215784612032565b81016020851015612166578190505b61217a61217285612032565b830182612119565b50505b505050565b600082821c905092915050565b60006121a060001984600802612182565b1980831691505092915050565b60006121b9838361218f565b9150826002028217905092915050565b6121d2826119d6565b67ffffffffffffffff8111156121eb576121ea611f8e565b5b6121f58254611fec565b61220082828561213c565b600060209050601f8311600181146122335760008415612221578287015190505b61222b85826121ad565b865550612293565b601f1984166122418661201d565b60005b8281101561226957848901518255600182019150602085019450602081019050612244565b868310156122865784890151612282601f89168261218f565b8355505b6001600288020188555050505b505050505050565b7f4e487b7100000000000000000000000000000000000000000000000000000000600052601160045260246000fd5b60006122d582611b48565b915060ff82036122e8576122e761229b565b5b600182019050919050565b60006122fe82611973565b915061230983611973565b92508282039050818111156123215761232061229b565b5b92915050565b600060608201905061233c6000830187611be1565b818103602083015261234f818587611eab565b905061235e60408301846118b7565b95945050505050565b7f43757272656e7420737461747573206973206e6f7420766f74696e672073657360008201527f73696f6e20656e64656400000000000000000000000000000000000000000000602082015250565b60006123c3602a83611d01565b91506123ce82612367565b604082019050919050565b600060208201905081810360008301526123f2816123b6565b9050919050565b600060408201905061240e6000830185611949565b61241b6020830184611949565b9392505050565b7f566f74696e67206e6f742079657420636c6f7365642021000000000000000000600082015250565b6000612458601783611d01565b915061246382612422565b602082019050919050565b600060208201905081810360008301526124878161244b565b9050919050565b7f4e487b7100000000000000000000000000000000000000000000000000000000600052603260045260246000fd5b7f566f74696e672073657373696f6e20686176656e74207374617274656420796560008201527f7400000000000000000000000000000000000000000000000000000000000000602082015250565b6000612519602183611d01565b9150612524826124bd565b604082019050919050565b600060208201905081810360008301526125488161250c565b9050919050565b7f5265676973746572696e672070726f706f73616c732063616e7420626520737460008201527f6172746564206e6f770000000000000000000000000000000000000000000000602082015250565b60006125ab602983611d01565b91506125b68261254f565b604082019050919050565b600060208201905081810360008301526125da8161259e565b9050919050565b7f5265676973746572696e672070726f706f73616c7320686176656e742073746160008201527f7274656420796574000000000000000000000000000000000000000000000000602082015250565b600061263d602883611d01565b9150612648826125e1565b604082019050919050565b6000602082019050818103600083015261266c81612630565b9050919050565b7f596f75206861766520616c726561647920766f74656400000000000000000000600082015250565b60006126a9601683611d01565b91506126b482612673565b602082019050919050565b600060208201905081810360008301526126d88161269c565b9050919050565b7f50726f706f73616c206e6f7420666f756e640000000000000000000000000000600082015250565b6000612715601283611d01565b9150612720826126df565b602082019050919050565b6000602082019050818103600083015261274481612708565b9050919050565b600061275682611973565b91507fffffffffffffffffffffffffffffffffffffffffffffffffffffffffffffffff82036127885761278761229b565b5b600182019050919050565b60006127ae6127a96127a484611b64565b6120a1565b611973565b9050919050565b6127be81612793565b82525050565b60006040820190506127d960008301856118b7565b6127e660208301846127b5565b9392505050565b7f5265676973746572696e672070726f706f73616c73207068617365206973206e60008201527f6f742066696e6973686564000000000000000000000000000000000000000000602082015250565b6000612849602b83611d01565b9150612854826127ed565b604082019050919050565b600060208201905081810360008301526128788161283c565b9050919050565b7f4f776e61626c653a206e6577206f776e657220697320746865207a65726f206160008201527f6464726573730000000000000000000000000000000000000000000000000000602082015250565b60006128db602683611d01565b91506128e68261287f565b604082019050919050565b6000602082019050818103600083015261290a816128ce565b9050919050565b7f566f7465727320726567697374726174696f6e206973206e6f74206f70656e2060008201527f7965740000000000000000000000000000000000000000000000000000000000602082015250565b600061296d602383611d01565b915061297882612911565b604082019050919050565b6000602082019050818103600083015261299c81612960565b9050919050565b7f416c726561647920726567697374657265640000000000000000000000000000600082015250565b60006129d9601283611d01565b91506129e4826129a3565b602082019050919050565b60006020820190508181036000830152612a08816129cc565b9050919050565b7f4f776e61626c653a2063616c6c6572206973206e6f7420746865206f776e6572600082015250565b6000612a45602083611d01565b9150612a5082612a0f565b602082019050919050565b60006020820190508181036000830152612a7481612a38565b905091905056fea26469706673582212208368f620ecdb952fc5e71644cc2d576ffeef609a06ae4d0371b37c5bcbf9f29864736f6c63430008120033",
  "linkReferences": {},
  "deployedLinkReferences": {}
}